:020000040800F2
:100000003088002051030008590300085B030008F2
:100010005D0300085F0300086103000800000000A2
:10002000000000000000000000000000B90200080D
:100030006503000800000000FD0200087D4C000878
:100040006B0300086B0300086B0300086B030008D8
:100050006B0300086B0300086B0300086B030008C8
:100060006B0300086B0300086B030008A93300084A
:10007000D5330008013400082D3400085934000835
:1000800085340008B13400086B0300086B030008D6
:100090006B0300086B0300086B0300086B03000888
:1000A0006B0300086B0300086B0300086B03000878
:1000B0006B0300086B0300086B0300086B03000868
:1000C0006B0300086B0300086B0300086B03000858
:1000D0006B0300085D55000895560008C9570008D5
:1000E0006B0300086B0300086B0300086B03000838
:1000F0006B0300086B0300086B0300086B03000828
:100100006B0300086B0300086B0300086B03000817
:10011000355400088D5400086B0300086B03000879
:10012000D1340008F13400082135000841350008B9
:1001300000F002F800F0B0F80AA090E8000C824449
:100140008344AAF10107DA4501D100F0A5F8AFF226
:10015000090EBAE80F0013F0010F18BFFB1A43F0A5
:1001600001031847A4B40000C4B400000A444FF0CF
:10017000000C10F8013B13F0070408BF10F8014B06
:100180001D1108BF10F8015B641E05D010F8016B4B
:10019000641E01F8016BF9D113F0080F1EBF10F8AF
:1001A000014BAD1C0C1B09D16D1E58BF01F801CBD2
:1001B000FAD505E014F8016B01F8016B6D1EF9D555
:1001C0009142D6D37047000000230024002500266A
:1001D000103A28BF78C1FBD8520728BF30C148BFAA
:1001E0000B6070476E2900F0C984702900F03B82D3
:1001F00066290AF03D8665290AF03A8667290AF0E1
:10020000378661290AF0368603681B0A28BF41F049
:100210008001692900F0AC81642900F0A981752969
:1002200000F0A6816F2900F0AE85782900F00782E2
:10023000E92900F04985E42900F04685F52900F018
:100240004385EF2900F0AB85F82900F006820368AA
:10025000DB0928BF41F08001632900F0CA847329BB
:1002600000F0CF84E32901F0B382F32901F0B882D2
:10027000002070471FB500F0C1FE040000200021DF
:1002800009F0E4FD401C60600020002109F0F4FD4D
:10029000E0601FBD10B510BD01F055FB1146FFF722
:1002A000E9FF07F047FC01F0A1FE03B4FFF7F2FFFE
:1002B00003BC01F0E5FE0000224B19680868B0E8B5
:1002C000F00F80F30988BFF36F8F4FF0000080F3C9
:1002D00011884EF00D0E70470000000006480068BF
:1002E000006880F3088862B661B6BFF34F8FBFF332
:1002F0006F8F00DF00BF00BF08ED00E0EFF3098063
:10030000BFF36F8F0F4B1A6820E9F00F106008B52C
:100310004FF0100080F31188BFF34F8FBFF36F8F42
:1003200008F07CFF4FF0000080F31188BDE8084022
:1003300019680868B0E8F00F80F30988BFF36F8F81
:10034000704700BFC4010020EFF305807047000034
:100350000948804709480047FEE7FEE7FEE7FEE759
:10036000FEE7FEE7FEE7FEE7FEE7FEE70448054995
:10037000054A064B704700008D4C0008310100080B
:10038000308200203088002030840020308400201B
:1003900053EA020C00F069802DE9F04B4FF00006A3
:1003A000002B1FBFB3FA83F503FA05F424FA05F610
:1003B0005E4012BF1643B2FA82F502FA05F4C5F1A7
:1003C00020051EBF22FA05FC44EA0C04203556EA3B
:1003D000044C4FEA144418BF641C4FF000084FF05F
:1003E0000009904271EB030C39D3002919BFB1FA0F
:1003F00081F701FA07F6B0FA80F700FA07F6C7F1BD
:1004000020071EBF20FA07FC46EA0C062037B6FB81
:10041000F4FCA7EB0507103F07F01F0BCBF12006FC
:100420000CFA0BFB2CFA06F644BFB3460026202F2D
:10043000A4BF5E464FF0000B5BEA060C08BF4FF00E
:10044000010B19EB0B09ABFB027C48EB0608C01B48
:1004500006FB02CC0BFB03CC71EB0C01C1E70B4696
:10046000024641464846BDE8F08B13B54FF0000008
:100470004FF00001AFF30080BDE81C407047000062
:100480001CB50C46064B7B4469460090204600F0A4
:100490008EFB04460020694600F09CFB20461CBDF4
:1004A0004B0700000FB41CB5084B06AA7B446946F5
:1004B0000090059800F07BFB04460020694600F0A0
:1004C00089FB20461CBC5DF814FB000025070000DA
:1004D00070B5044685690068C10601D5302600E084
:1004E0002026C00707D070BDD4E9012130469047CF
:1004F000206A401C20626D1EF6D570BD70B50446A2
:1005000085690078C00707D170BDD4E9012120209A
:100510009047206A401C20626D1EF6D570BD70B5F4
:100520000C460546012A05D02878800600D5EA69E0
:10053000002302E0012305E05B1C934202D2E05C51
:100540000028F9D1A869E618C01AA861286A1844D9
:1005500028622846FFF7BCFF04E0D5E9012114F822
:10056000010B9047B442F8D32846FFF7C7FF70BD90
:100570002DE9F0410646002410687529314616A57C
:1005800010D000F090FA002802DA404213A507E0EC
:1005900031688A0701D512A502E0490704D511A5E3
:1005A000012401E000F088FA00210A2206F1240764
:1005B00009E0B0FBF2FCB0FBF2F302FB1C003030B0
:1005C00078541846491C0028F3D123462A46304661
:1005D000BDE8F04100F079BA000000002D000000F5
:1005E0002B00000020000000F0B40D460188090532
:1005F00002D5214C7C4402E01F4C7C440E34002187
:1006000000F1240608E002F00F071209E75D42EA54
:1006100003721B097754491C52EA0307F3D102788D
:100620000023120704D5702D06D009B1022311341E
:100630002246F0BC00F049BA01231034F8E770B547
:1006400004460D462146106800F036FA0246294657
:100650002046BDE870400023C6E7D21D22F0070304
:10066000D3E90023C0E70368126843F02003036066
:100670000823C3610023B7E710AF00002DE9F05F46
:10068000894604464FF0000ADFF874B1FB44C0F815
:1006900020A02046E1688847002874D0252806D08D
:1006A000D4E901219047206A401C2062F1E700262E
:1006B0005F462046E16888472028054607DB312D44
:1006C00005D2781910F8200C08B10643F1E7B007FD
:1006D00001D526F00406C4F81CA00027C4F818A011
:1006E0002A2D09D0284606F00AFD38B304EB870806
:1006F000303DC8F8185019E059F8041B204604EBA7
:1007000087029161E1688847012F054618D1E069A9
:10071000002820DA26F020061DE0D8F8180000EBAB
:10072000800005EB40003038C8F818002046E1682A
:100730008847054606F0E3FC0028EED1012F0AD0D9
:100740002E2D08D12046E16888477F1C0546022FE0
:1007500046F02006C4DBA069002803DA404246F0D8
:100760000106A061F00701D026F010066C2D0BD019
:10077000682D09D04C2D39D06A2D35D0742D35D047
:100780007A2D33D016E038E0E1682F4620468847BE
:10079000B842054609D16C2F26D04FF48060E1683D
:1007A000064320468847054604E06C2F1AD04FF4D4
:1007B000807006430DB3A5F14100192802D82035F9
:1007C00046F400664A462946204626604E46FFF714
:1007D00009FD80B101280BD0F61D26F0070000F1BD
:1007E000080956E74020E4E78020D8E70020D6E754
:1007F00006F104094DE7284652E7206ABDE8F09F5C
:10080000A0AE00002DE9F04791460F468046044611
:10081000002614F8015B2DB100F02EF90068405D50
:10082000C007F6D12B2D02D02D2D18D0641E4A46BC
:100830003946204600F0BEFA27B13968A14201D1FD
:10084000C7F800804FF0020471050BD54042002824
:1008500003DD00F019F90460A007BDE8F08746F455
:100860008066E4E70028F8DA00F00EF904606FF023
:100870000040F2E700F04DBB401ECAB210F8011F65
:100880008A4202D00029F9D10020704730B50546D0
:100890000B462A4613F8014B12F8010B08B1A0428F
:1008A000F8D01CB1002802D06D1CF1E7284630BDFD
:1008B00040EA010310B59B070FD1042A0DD310C8DD
:1008C00008C9121F9C42F8D020BA19BA884201D92F
:1008D000012010BD4FF0FF3010BD1AB1D30703D077
:1008E000521C07E0002010BD10F8013B11F8014B2D
:1008F0001B1B07D110F8013B11F8014B1B1B01D149
:10090000921EF1D1184610BD10B5431C02E010F83C
:10091000011B71B18107FAD14FF0013202C88C1A64
:100920008C4314EAC211F9D0C01A0A0603D0C01EC3
:1009300010BDC01A10BD0A0401D0801E10BD0902EE
:10094000FCD0401E10BD032A40F2308010F0030C92
:1009500000F0158011F8013BBCF1020F624498BF12
:1009600011F801CB00F8013B38BF11F8013BA2F1AF
:10097000040298BF00F801CB38BF00F8013B11F02A
:10098000030300F00483083AC0F0088051F8043BE8
:10099000083A51F804CBA0E80810F5E7121D5CBF37
:1009A00051F8043B40F8043BAFF30080D20724BF6A
:1009B00011F8013B11F801CB48BF11F8012B24BFFE
:1009C00000F8013B00F801CB48BF00F8012B70474D
:1009D00002F0FF0343EA032242EA024200F002B8B7
:1009E0004FF000020429C0F0128010F0030C00F058
:1009F0001B80CCF1040CBCF1020F18BF00F8012BD6
:100A0000A8BF20F8022BA1EB0C0100F00DB85FEAA3
:100A1000C17C24BF00F8012B00F8012B48BF00F86F
:100A2000012B70474FF0000200B5134694469646DE
:100A3000203922BFA0E80C50A0E80C50B1F12001F1
:100A4000BFF4F7AF090728BFA0E80C5048BF0CC09F
:100A50005DF804EB890028BF40F8042B08BF7047FD
:100A600048BF20F8022B11F0804F18BF00F8012B6F
:100A7000704770477047704710B500F0BFFA001D0F
:100A800010BD00BFC993000000487047D08100200E
:100A900010B5FFF7F9FF006810BD10B50446FFF769
:100AA000F3FF046010BD09684A0501D540B27047E4
:100AB000C905FCD500B2704709684A0501D5C0B226
:100AC0007047C905FCD580B270472DE9F0470D4647
:100AD00099469246044600F124080168880604D528
:100AE000E06921F01001216000E00120A84201DD51
:100AF000471B00E00027A1697A1902EB0900081AD8
:100B0000A0612078C00602D42046FFF7E1FC002651
:100B100008E0D4E901211AF806009047206A401C39
:100B2000761C20624E45F4DB2078C0060AD52046AC
:100B3000FFF7CEFC06E0D4E9012130209047206A7F
:100B4000401C2062381EA7F10107F4DC07E0D4E95D
:100B5000012118F805009047206A401C2062281ED9
:100B6000A5F10105F3DC2046FFF7C8FC207800065C
:100B700002D50220BDE8F0870120FBE7116802687A
:100B8000006A530501D508700AE0D30501D5088035
:100B900006E0130603D5C217C1E9000200E00860B1
:100BA0000120704701694A1C02610878704700B54E
:100BB0008FB0CDE901310021059105497944CDE996
:100BC000031011466846FFF759FD0FB000BD000045
:100BD000E5FFFFFF0A6802F8010B0A60704710B5D5
:100BE000436913B1AFF3008001E0FFF798FC0120E7
:100BF00010BD127800F124010A7000224A7001220F
:100C0000EDE711684FF0FF32E9E700002DE9FF5FE3
:100C100015468A460446DFF8AC80F8440027D8E938
:100C200000103E46CDE9001010E03AF816106A4672
:100C300002A800F068FE411C07D02178890603D580
:100C4000E269391891420DD80744761C2078800655
:100C500002D5E069B84205DDAE42E6DB3AF816009F
:100C60000028E2D1A069C01BA0612046FFF730FC3C
:100C7000D8E90010CDE90010002017E03AF818106C
:100C80006A4602A800F03FFEB0F1FF3F81460BD05C
:100C900000250DF1080B05E0D4E901211BF8050042
:100CA00090476D1C4D45F7D308F10100B0428046D6
:100CB000E4DB206A384420622046FFF71FFCBDE8D1
:100CC000FF9F000026A900002DE9F0418046D21DBB
:100CD00022F007020025D2E90002F52915A614D05A
:100CE000011E72F1000106DA0023D0EB030063EB72
:100CF000020211A608E0D8F800108B0701D50FA654
:100D000002E0490701D50EA601251146002408F18D
:100D1000240704E000F076F930323A55641C50EABA
:100D20000102F7D12B46324621464046BDE8F0414C
:100D3000FFF7CBBE000000002D0000002B000000DC
:100D40002000000030B4002100F1240408E002F08B
:100D50000705D208303542EA4372DB086554491C66
:100D600052EA0305F3D10468002310A2250707D532
:100D7000A40600D421B1C46901230DA2641EC4617C
:100D800030BCFFF7A2BE10B5044621461068FFF73D
:100D900093FE02462046BDE810400023D2E7D21D54
:100DA00022F00701D1E90023CCE700000000000099
:100DB000300000002DE9F05F824615468B46002783
:100DC0000AF10104B9460078302801D09DB113E042
:100DD00014F8010B0127782803D0582801D045B119
:100DE0000AE00DB1102D07D1002714F8010B1025D2
:100DF00002E0082500E00A250026B0460EE005FBCB
:100E0000080005FB06F101271FFA80F801EB1046E8
:100E1000B6F5803F00D3B94614F8010B294600F01F
:100E2000E3FC0028EBDABBF1000F05D00FB1641E24
:100E300000E05446CBF80040B9F1000F06D0FFF7B0
:100E400023FE02210160C81EBDE8F09F48EA06406B
:100E5000FAE700000FB4002300B589B00CA9009197
:100E60000B99CB60214B7B440693214B7B4407932A
:100E700004236FF00042CDE901321E4A7A446B46EA
:100E80000892024600200AF057F809B05DF814FBFA
:100E900070B506464FF0FF3015460C46324686B018
:100EA0000091CDE9010169460020049004A8FFF7F4
:100EB000D1FF02460498211825B108B1084600E088
:100EC00020462860049800280DD0002A02DD0098F2
:100ED000884208D03246081B69460094CDE90104D7
:100EE00004A8FFF7B7FF06B070BD00009B09000023
:100EF000B30900000F0200007CB5054600236846D8
:100F0000CDE90033FFF7C4FF6946284606F086F8AE
:100F10007CBD2DE9F05F93460F46804604460026CF
:100F2000FFF7B2FDD0F80090824614F8015B2DB1B6
:100F3000FFF7A2FD0068405DC007F6D12B2D02D05F
:100F40002D2D1FD0641E0021CAF800105A463946C4
:100F5000204600F077FC024627B13868A04201D154
:100F6000C7F80080DAF8000002280ED0CAF8009016
:100F700070050AD500200346D2EB000063EB0101A7
:100F8000BDE8F09F46F48066DDE71046F8E710B54F
:100F9000203AC0F00B80B1E81850203AA0E8185071
:100FA000B1E81850A0E81850BFF4F5AF5FEA027C32
:100FB00024BFB1E81850A0E8185044BF18C918C0A1
:100FC000BDE810405FEA827C24BF51F8043B40F842
:100FD000043B08BF7047D20728BF31F8023B48BF27
:100FE00011F8012B28BF20F8023B48BF00F8012B65
:100FF0007047000000487047D081002000487047CB
:10100000F081002030B5B0F10A024FEA900E71F184
:1010100000034EEA817EB0EB0E0061EB91014FEAD6
:10102000101E4EEA017E10EB0E0041EB11114FEA4B
:10103000102E4EEA016E10EB0E0041EB11214FEA2B
:10104000104E4EEA014E10EB0E0041EB11414018DC
:1010500041F100014FEAD00040EA41704FEAD1016E
:1010600010EB80054FEA810444EA907444EB0104DC
:101070006D1944EB0404521BA3414FF0000348BF19
:101080000A3200D530BD401C41F1000130BD10B521
:101090000446FFF7F1FC0068005D00F0010010BDA0
:1010A00070472DE9FF4F0C461E464FF0FF378BB0BF
:1010B000D2E90001DDF860800A908A46C1F30A5542
:1010C00005B93D46002108464FF00000BAF1000F77
:1010D00000F4400005DA00EB80004FF4400101EA23
:1010E00050004FEA9059B9F1010F00DDB9460A9856
:1010F00050EA4A000ED044F61050A5F2FF354543A1
:101100002F14B8F1000F1ED07542291E1EDDC9F143
:1011100000021CE0B8F1010F4FF0000001D03021B7
:1011200003E0F24305E02154401CB042FBDB3046B3
:101130000022002121540B99C1F80880C1E9002048
:101140000FB0BDE8F08FBD1B6D1CDEE74A4600DA2C
:10115000694206A800F0D8FE06AB93E8070003AB8F
:1011600083E8070050460A9901F0CEF98DE80700A0
:10117000A0F500501F3800900398002D0ADD42F2C0
:101180001F014A460844002303A90390684601F062
:1011900079FC09E0A0F500504A461F38002303A956
:1011A0000390684601F098FC8DE807000004000CED
:1011B00003D04FF0FF30410800E01046B8F1000FB7
:1011C00003D00022009215461EE0751E05D4FFF7DD
:1011D00019FF303262556D1EF9D5B346012208431E
:1011E00002D000227F1C04E02078302801D10022A8
:1011F0007F1E002A099784D01DE0112D07DAFFF722
:1012000001FF303262556D1C50EA0102F5D10843EE
:1012100002D00098C8B10EE00021681E05E0235CF2
:10122000625C63542254401E491C8142F7DBAB468A
:10123000A81B401E0990002004F80B000B98099A87
:10124000C0F80880C0E9002B7AE711264FF00008AB
:1012500057E72DE9F04F88460446D21D22F00701DA
:1012600091B0D1E90001CDE90A0105F075FE024611
:101270000B98C00F01D02D2007E02068810701D511
:101280002B2002E0202101EAC000032A099001D0AE
:10129000072A05DB03464146204600F079FB0BE1B7
:1012A0002078800601D5E06900E00620B8F1650FDE
:1012B000814606D0B8F1660F18D0B8F1670F70D12B
:1012C00031E00020B9F1110F009001DB112301E0A2
:1012D00009F101030AAA01A90CA8FFF7E2FEDDE962
:1012E0000C70002609F10105834647E001204B46BA
:1012F00000904FF000470AAA01A90CA8FFF7D1FE01
:10130000DDE90DB00C995D46002610B909F1010028
:101310000D18B9EB050003D4C0F1FF3609F1010542
:10132000A5EB09002BE0B9F1010F01DA4FF001093B
:101330000020B9F1110F0090484601DD112300E0B3
:1013400003460AAA01A90CA8FFF7ABFEDDE90C7061
:101350004D4600268346207800070AD4AB4500DAC4
:101360005D4601A8012D04DD411911F8011C302949
:1013700007D04F4502DA17F1040F04DA0120824644
:101380000FE06D1EEEE7002F02DCED1B3E4403E094
:10139000781CA84200DD7D1CB81B00F1010A4FF04B
:1013A00000472078000703D4AA4501DB4FF0FF3A3D
:1013B0000021B7F1004F0DF143088DF8431024D000
:1013C00002202B23002F01DA7F422D230A21021E47
:1013D000A0F1010000DC5FB197FBF1FC97FBF1F29B
:1013E00001FB1C7C17460CF1300C08F801CDEEE730
:1013F000A8F1010003702188090501D5452100E00D
:101400006521A0F1010800F8011C09980FA9A1EBC2
:101410000807FF1D00B10120411901EBEA70A16925
:101420003844081A401EA0612078C00602D4204625
:10143000FFF74EF8099828B1D4E901219047206AB6
:10144000401C20622078C00622D52046FFF740F8D5
:101450001EE0002E04DBB34502DD01A8805D00E044
:101460003020D4E901219047206A401C2062761C7C
:10147000AAF101005FEA000A0AD1FFF7BFFDC068C8
:101480000168405CD4E901219047206A401C206239
:10149000281EA5F10105DCDC07E0D4E9012118F8DC
:1014A000010B9047206A401C2062381EA7F10107FB
:1014B000F3DC2046FFF722F8032011B041E60000DC
:1014C0002DE9F04F04460D46D21D22F0070089B0E9
:1014D000D0E900974846394605F03EFD0246F80F30
:1014E00001D02D2307E02068810701D52B2302E0DE
:1014F000202101EAC0038DF820300BB1012000E06B
:101500000020032A824601D0072A04DB2946204610
:1015100000F03EFA3FE12078800601D40D2500E07E
:10152000E569C7F30A560D2D49DA00214FEA175B2A
:1015300008464FF00000002F00F4400007DA00EBEF
:1015400080004FF4400100EBD07001EA600081158B
:10155000012901DD4FF0FF3100224FEA850CBCF17B
:10156000180F06D31346ACF118004FF08052C2405A
:1015700003E04FF4801323FA0CF30CF10C0CBCF1D4
:10158000200F04D3ACF1200C09FA0CF001E007FAAB
:101590000CF000294FF0004801DD18B90FE00ED122
:1015A00040450CD319EB02095F4121B9404502D1F6
:1015B0009F4329EA0209BBEB175F00D0761C208805
:1015C000000502D57B48784402E07A48784419380F
:1015D00008AA302302F80A30037C0AF10101002E28
:1015E0000AF1020A53546A4602DC4FF0300101E06E
:1015F0004FF031014FF001088DF8001002D0A6F233
:10160000FF3603E059EA470100D06B4E002D02DCA3
:101610002178090704D54FF002082E218DF801101A
:10162000C44600210BE0C7F303433F01C35C491CE0
:101630006D1E02F80830052908F1010801DA002DB5
:10164000F1DC00210CE000EB1973491C1B786D1EC6
:10165000082902F808304FEA091908F1010801DAEF
:10166000002DF0DC21688B0602D516E0A8F10108F8
:10167000E04505DD02EB080313F8013C302BF5D003
:10168000B8F1000F09DD02EB080313F8013C2E2B23
:1016900003D1090701D4A8F10108002D05DD3E2181
:1016A00002F808106D1E08F10108407C002E02F8B7
:1016B000080008F1010804DA2D20764202F808003B
:1016C00002E02B2002F808000A214FF47A708642CB
:1016D00008F101080BDB96FBF0F3303302F8083019
:1016E00096FBF0F308F1010800FB136601E0642E9D
:1016F0000CDB642096FBF0F3303302F8083096FBE5
:10170000F0F308F1010800FB136601E00A2E06DB86
:1017100096FBF1F0303002F8080008F1010896FB62
:10172000F1F001FB1060303002F80800A16908F107
:10173000010808EB050202EB0A00081AA0612078F4
:10174000C00602D42046FEF7C3FE216A08AE01EBB4
:101750000A00206204E0D4E9012116F8010B904749
:10176000BAF1010AF7D22078C00602D52046FEF76A
:10177000AFFE6E4609E016F8010B3E280FD0D4E903
:1017800001219047206A401C2062B8F10108F2D282
:101790002046FEF7B3FE09B00320BDE8F08F206AB3
:1017A0002844206203E0D4E90121302090476D1ED7
:1017B000EBD3F8E7959F000002FCFFFF10B54369EB
:1017C00013B1AFF3008001E0FFF720FA012010BD54
:1017D000128800F1240182840022C2840122EDE7F4
:1017E00011684FF0FF32E9E73A2800D2303820F094
:1017F0002002412A01D3A2F13700884201D34FF0E1
:10180000FF307047426842B1016811F8013B23B1D3
:10181000521EC0E90012184670470121C160881E9F
:10182000704742685AB1C368016843B983688B4204
:1018300005D0491E521CC0E90012002070474FF02D
:10184000FF3070472DE9F74F4FF000091546CA46A3
:10185000009C14F8010B302801D0ADB115E014F84C
:10186000010B4FF00109782803D0582801D04DB161
:101870000BE00DB1102D08D14FF0000914F8010B49
:10188000102502E0082500E00A2500274FEAE57B45
:101890003E46B84616E0A5FB07234FF0010905FBBD
:1018A00008000BFB0731030C05FB0616D7181FFABF
:1018B00080F846F10006381E76F5803000D3CA461F
:1018C00014F8010B2946FFF78FFF0028E3DA01988F
:1018D00038B1B9F1000F01D0641E00E0009C0198FE
:1018E0000460BAF1000F08D0FFF7CEF802210160C2
:1018F000C81E014603B0BDE8F08F310441EA17412C
:1019000048EA0740F6E770B516460C460546FFF76D
:10191000B3F8036893F80101012806D0FF2C0FD813
:10192000185D68B101202C7070BDD3F807013246F4
:10193000214603F2071303442846BDE870401847C8
:101940004FF0FF3070BD7546FFF754FBAE46050003
:101950006946534620F00700854618B020B5FEF7CB
:1019600005FDBDE820404FF000064FF000074FF0A6
:1019700000084FF0000B21F00701AC46ACE8C009AD
:10198000ACE8C009ACE8C009ACE8C0098D467047B6
:101990002DE9F0411F46044603260168072A01F499
:1019A000006004DB08B116A505E016A503E008B148
:1019B00015A500E015A521F010002060A069C01E4B
:1019C000A0610FB1401EA0612046FEF781FD4FB11E
:1019D000D4E9012138469047206A401C2062C01C8F
:1019E000206206E0206AFAE7D4E9012115F8010B2C
:1019F0009047761EF8D22046FEF780FDBDE8F081C4
:101A00004E414E006E616E00494E4600696E6600A2
:101A10002DE9FF4F06468BB00878FF2806D0491CF9
:101A20002D2805D000244FF0000908E000200CE02C
:101A30000124F8E709EB8903491C00EB4309087806
:101A4000FF28F7D114B1C9F10000814610780025B4
:101A50002C46AA4629462D2801D02B2804D1521CF9
:101A60002D2813D0002082468B461078FF280FD0F7
:101A70004FF0000C0A21521CA5FB017804FB0181E8
:101A800005FB0C11C5194BEB0104EEE70120EAE759
:101A9000002108464FF00000BAF1000F02D000EB21
:101AA00080004008C0F38157012F01DD4FF0FF3760
:101AB0000E9955EA040009EB01080BD04FF002091A
:101AC00018F5FA7F16DA4FEACA70002F706008DD49
:101AD000012007E04FEACA70C6E900B00FB0BDE8C8
:101AE000F08F00203060FEF7CFFFC0F80090182183
:101AF000084616E0B8F5FA7F18DD002F02DAF7483D
:101B0000784401E0F6487844D0E90010C6E90010B6
:101B100040EACA707060FEF7B7FFC0F80090142169
:101B200008460FB0BDE8F04F09F09FB90021084604
:101B30004FF00000B8F10001099002DAC7F100028D
:101B400000E03A4601DAC8F1000106A800F0DCF92D
:101B500006AB93E8070003AB83E8070044F23E00BE
:101B60005BEA04010090584604D144F21E012C4661
:101B70005D460091210C0904014306D1009924041B
:101B800044EA15442D041039009104F07F410143CB
:101B900006D10099240244EA15642D020839009107
:101BA00004F07041014306D10099240144EA157400
:101BB0002D01091F009104F04041014306D1009915
:101BC000A40044EA9574AD00891E009104F0004120
:101BD000084304D100986D196441401E00904FF0F5
:101BE00001033A466846B8F1000FCDE9014503A963
:101BF00002DD00F086FF01E000F059FFBAF1000FAE
:101C000004460D4601D084F00044002108464FF000
:101C10000000099940F2FF77484010F00C0F07D1FF
:101C200024F00040284303D0C4F30A50B84212D134
:101C3000FEF72AFFC0F80090C4F30A50B8420AD158
:101C4000A8487844D0E90010C6E9001004F000412B
:101C50000843706042E7C6E900543FE72DE9FF4FB3
:101C60001F464FF0000A4FF0FF38454691B0D7E9C4
:101C70000146CDF83CA0FFF7C1F9C0680168405C9F
:101C80001090B96912986D1C8847396A8146884757
:101C90000028F6D1B9F1FF3F0AD0002E24F4D06419
:101CA00011DDB9F12B0F08D0B9F12D0F0BD102E0E6
:101CB000404615B013E744F48064B96912986D1C6E
:101CC0008847761E8146600504A901D52D2000E0D5
:101CD0002B20002E01F1010B0DF130088DF81000C2
:101CE0003FDDB9F1690F08D0B9F1490F05D0B9F15D
:101CF0006E0F02D0B9F14E0F1CD13B4601A80095E2
:101D000080E85002DDE912126FF0020009F018F9C4
:101D1000C11CCED10EE0B96912986D1C884781466E
:101D20001398761E44F4007405600F98401C002E32
:101D30000F9016DDB9F1300FEDD0B9F1780F02D068
:101D4000B9F1580F0DD10F9801280AD13B46CDE9C2
:101D50000054DDE91212001F029609F0EFF8C11CD1
:101D6000A7D1109989453ED144F0800406E013992B
:101D7000681CAAF1010A44F400740860B9696D1C7A
:101D80001298761E884730288146F0D02BE01099B3
:101D9000894505D1200603D4761E44F0800418E05E
:101DA000484605F0ACF908B3761E0DF123018B45CA
:101DB00044F4007408D2A9F130000BF8010B20069E
:101DC00007D5AAF1010003E0200602D40AF10100C0
:101DD0008246A00502D51399681C0860B96912985B
:101DE0006D1C88478146002ED1DC53E0002E51DD6A
:101DF000B9F1650F02D0B9F1450F4BD1A00549D516
:101E0000B9696D1C1298761E24F440748847002E20
:101E100081460CDD2B2804D0B9F12D0F07D144F4F5
:101E20008074B96912986D1C8847761E8146E0055A
:101E300001D52D2100E02B2108F8011BCDF80080F1
:101E400021E0761E0DF13901884544F400740CD26E
:101E5000A9F1300010F0FF0088F8000002D10099CD
:101E6000884509D908F1010806E0E00501D51E48BA
:101E700001E042F20F708246B96912986D1C8847E2
:101E8000814613980560002E04DD484605F037F9B9
:101E90000028D6D1F96912988847FF2053468BF85D
:101EA000000088F8000000200A900B9004AA0CA9FA
:101EB0000AA8FFF7ADFDA00502D46FF00100F8E617
:101EC00014F0240F12D0E0071CD13868DDE90A12A3
:101ED000031D3B600068C0E9001213E02C9B00006A
:101EE0001E9B0000E2990000F1D8FFFF0AA9684696
:101EF00005F094F8E00705D13868009A011D3960B3
:101F0000006802602846D4E62DE9F047814616466F
:101F10008AB0354878440DC88DE80D0032487844C1
:101F2000801C03AC0DC884E80D0041F69B300844CA
:101F3000372190FBF1F290FBF1F5A5F1800501FB53
:101F400012041B3C02D56442012000E00020DFF8AF
:101F500098A080460027FA44AAF1BE0A0EE0E007E6
:101F60000AD03246684607EB470101230AEB81019C
:101F700000F0B2FD8DE8070064107F1C002CEED14C
:101F8000194F7F44AE3F19E0E80715D007EB041066
:101F90000DF1180A90E80E008AE80E00C068F042C1
:101FA00001D1981908903246012306A903A800F030
:101FB00093FD03AB83E807006D10641C002DE3D193
:101FC0004FF0010332466946B8F1000F03A802D072
:101FD00000F058FD01E000F07FFDC9E90001C9F8FB
:101FE00008200AB0BDE8F087D896000010B5044676
:101FF000AFF300802046BDE81040FEF756B9000060
:102000004FF0013C50F8042B51F8043B9A4221D187
:10201000A2EB0C03934313EACC1317D150F8042B13
:1020200051F8043B9A4215D1A2EB0C03934313EAF7
:10203000CC130BD150F8042B51F8043B9A4209D130
:10204000A2EB0C03934313EACC13DBD04FF0000058
:10205000704700BFD01A01BAB1FA81F101F018013E
:1020600022FA01F0CB40C1F12001DBB2C0B2C01AAC
:102070002CFA01F3D11A914311EAC311E6D170474A
:1020800001491820ABBEFEE7260002002DE9FF4FF4
:102090001F464FF03C0987B04FF00042DDE91410B5
:1020A00001F10108DDF858A002EA40500390002039
:1020B00005908346054604460490B969461E089873
:1020C0008847AAF1010A0290BAF1000F3BDD02989D
:1020D0002E2815D01021FFF787FB00282EDB4FF0AC
:1020E000010B0599014317D0B9F1000F0BDB4A46EC
:1020F000C11700F0F6F905430C43A9F1040905E006
:10210000012004900BE008B145F001050120059085
:10211000049820B9361D02E0049800B1361FB96951
:10212000089808F101088847BBF1000FAAF1010ADD
:102130000290C9D00999C1F80080C5E702987028BB
:1021400008D0502806D0F96908988847BBF1000FDD
:1021500014D04FE0002002900120BBF1000F04904A
:1021600009D0B969089808F101088847AAF101095E
:10217000B9F1000F07DCF969089888476FF0010092
:102180000BB0BDE8F08F2B2804D02D280CD14FF0D8
:10219000FF300490B969089808F101088847A9F14F
:1021A0000109B9F1000FE6DD411CE4D00A21FFF777
:1021B0001BFB0028DFDB029908F1010801EB81011C
:1021C00000EB41000290B969089888470A21FFF79F
:1021D0000BFB099AA9F10109B9F1000FC2F80080BF
:1021E00001DD0028E7DAF969089888470499029820
:1021F00000FB016655EA040004D004F040410900E8
:1022000002D006E0039898E0A40044EA9574AD007B
:10221000B61E04F00041080002D16D196441761E1B
:10222000159810F0240F03D04FF00B095C4803E021
:102230004FF028096FF07D008246564507DAAAEB79
:1022400006018944B9F1410F01DD4FF04109012038
:102250000021A9F1010200F044F9024628400B4692
:102260002140084301D0012100E00021501E0291CD
:1022700043F1FF3128402140084301D0012000E014
:1022800000200299834651EA0B014FD000210846F5
:102290004FF00000039900F4400039B100EB8000DA
:1022A0004FF4400100EBD07001EA60008015012876
:1022B00002DD4FF0FF3000E013D0401C36D0029812
:1022C00060B3BBF1000F0CD14A460120002100F0A1
:1022D00008F928402140084301D0012000E00020F7
:1022E000E0B101204A46002100F0FBF80346401906
:1022F0000A4661412D1A8C4111D3B9F1400F09DD15
:10230000159810F0240F02D0AAF1340603E0AAF1C8
:10231000170600E0761C00254FF0004406E05B1E27
:1023200042F1FF3220EA030521EA0204CAF101006A
:10233000B04206DA1B490398084301900020009040
:102340000EE0039AC4F3D321E80A0A43164940EA8F
:1023500044500A433146CDE90002684604F0C4FE09
:10236000159810F0240F0BD01598C00715D13868B8
:10237000DDE90012031D3B600068C0E900120CE0BB
:1023800002A8694604F04AFE1598C00705D13868CE
:10239000029A011D3960006802604046F0E60000C4
:1023A00002FCFFFF0000F07F0000F03F2DE9FF4F2F
:1023B00092461D4685B04FF00041DDE9124BDDE944
:1023C00014727F1E01EA4B50414940F0FF4940EA38
:1023D0000108002122F020004928049102D04E2853
:1023E00028D04CE03BA0012607C88DE80700A9696A
:1023F0000698641C88477F1E014606D41DF8060017
:1024000018B121F0200181420BD0E9690698884774
:10241000032E34D0082E32D06FF0010009B0BDE891
:10242000F08F761C032E01D0082EE0D1601CCAF874
:102430000000DCE7A9690698641C88477F1E2AD43F
:1024400020F02000412826D1A9690698641C8847FD
:102450007F1E20D420F020004E281CD1A9690698A8
:10246000641C88477F1E48F4002849F48009CAF894
:10247000004001D4282806D0E969069888475FEA19
:10248000CB7012D022E0A9690698641C88477F1E91
:1024900001D4002803DAE96906988847BCE72928AF
:1024A000F1D1641CCAF80040E9E71BF0240F07D003
:1024B00028680499031D2B600068C0E9001805E036
:1024C0002868021D2A600068C0F800902046A5E731
:1024D0000000F07F494E46494E4954590000000023
:1024E0007047B2F120030AD5C2F1200301FA02F1CC
:1024F00020FA03F300FA02F041EA0301704700FA00
:1025000003F14FF0000070475FEA400C08BF91F004
:10251000000F4FEA8C234FEAC12243EA51514FEAA0
:102520001C5018BF00F5F0404FEA300018BF41F0D2
:1025300000415FEA6C5C00F02980BCF1FF3F08BFFE
:1025400040F080407047130C06BF12044FF0100C8F
:102550004FF0000C130E04BF12020CF1080C130F05
:1025600004BF12010CF1040C930F04BF92000CF194
:10257000020CD30F04BF52000CF1010C11464FF0B6
:102580000002A0F11F00A0EB0C00704711F0004FFB
:1025900008BF704731F000413FF4D5AF0B0C06BFC8
:1025A00009044FF0100C4FF0000C0B0E04BF090291
:1025B0000CF1080C0B0F04BF09010CF1040C8B0F7C
:1025C00004BF89000CF1020CCB0F04BF49000CF1D1
:1025D000010CCCF12003A0EB0C0022FA03F302FA69
:1025E0000CF241EA030100F10100704720F07F4C3A
:1025F00080EA030023F07F47ACEB070303F57C532D
:1026000000F0004003F1FF032DE980494FEA154B2C
:1026100009B44FEA144325EA0B4E24EA03480FF2AB
:10262000042606EB132749083E785FEA320203FBD3
:102630000667C7F5000707FB06F64FEA54374FEA6F
:10264000D64606F1020607FB066CCCF1005C4FEAA9
:102650001C472CEA074C07FB06F40CFB06F504EBC1
:1026600015464FEA961634BF00204FF000404FEA5F
:10267000D13706FB07FC4FEA1C4C0CFB0BF7D21BB7
:1026800003FB0CF761EB07010CFB0EF7B0EB074007
:1026900072EB17420CFB08F734BFA2EB0742B2EB18
:1026A000074261EB17414FEA0C444FEA910706FBE2
:1026B00007FC4FEA1C4C0CFB0BF7B0EBC74072EB6E
:1026C000573203FB0CF734BFA2EBC742B2EBC74251
:1026D00061EB57310CFB0EF7B0EBC70072EB577292
:1026E0000CFB08F734BFA2EBC702B2EBC70261EBE9
:1026F0005771039F4FEA816141EA921104EBCC04C8
:102700004FEAD1374FEA826206FB07FC42EA901299
:102710004FEA80604FEA1C4C0CFB0BF7D21B03FB0B
:102720000CF761EB07010CFB0EF7B0EB074072EB07
:1027300017420CFB08F734BFA2EB0742B2EB07428B
:1027400061EB17414FEA8C554FEA910704EB9C244B
:1027500006FB07FC4FEA1C4C0CFB0BF7B0EBC74029
:1027600072EB573203FB0CF734BFA2EBC742B2EB5C
:10277000C74261EB57310CFB0EF7B0EBC70072EBB1
:1027800057720CFB08F734BFA2EBC702B2EBC702CB
:1027900061EB577115EB4C254FEA816141EA9211CB
:1027A0004FEA82624FEAD13742EA901206FB07FCF9
:1027B00044F100044FEA80604FEA1C4C0CFB0BF71D
:1027C000D21B03FB0CF761EB07010CFB0EF7B0EB20
:1027D000074072EB17420CFB08F734BFA2EB07422D
:1027E000B2EB074261EB174115EB1C154FEA813143
:1027F00041EA92414FEA823242EA90424FEA803007
:102800004FEA0C7644F1000448EA03434EEA0B48D1
:102810004FF0000EB2EB080C71EB030724BF6246C9
:1028200039464EEB0E0E4FF0000B00185241494155
:102830004BEB0B0BB2EB080C71EB03077BF1000BBE
:1028400024BF624639464EEB0E0E4FF0000B0018C7
:10285000524149414BEB0B0BB2EB080C71EB0307F8
:102860007BF1000B24BF624639464EEB0E0E51EA57
:10287000020718BF46F0010616EB0E7655F100026E
:1028800054F1000103D5BDE88901BDE80088BDE829
:102890008901BDE80048B619524141EB0101A3F19D
:1028A0000103704780807F7E7D7C7B7A79787776A4
:1028B00076757473727171706F6E6E6D6C6C6B6A1D
:1028C0006A696868676666656464636362616160BB
:1028D000605F5F5E5E5D5D5C5C5B5B5A5A59595838
:1028E00058575756565555555454535352525251A2
:1028F000515050504F4F4F4E4E4D4D4D4C4C4C4BF8
:102900004B4B4A4A4A49494948484847474747463E
:10291000464645454544444444434343434242427A
:102920004241414146EA0646A3F570534FEA164636
:1029300046EA42564FEAD22242EA415210B54FEAE5
:10294000D121A3F1010300F02FF820F0004000F1A5
:10295000020C00F0004701EB00501146BCF5006F7F
:1029600040EA070000D210BDBAF1000F0AD01CB532
:1029700003B44FF004004FF004014FF000000FBC0F
:10298000BDE810404FF00001BBF1010FB9BF044892
:102990004FF0FF310348002140EA070010BD00BF9F
:1029A000FFFFEF7F0000F07F002B9C4630D47700C4
:1029B0002BD01CB54FEA370703B44FF010004FF08F
:1029C0001001BAF1000F06D0BCF1000FDCBF40F0DF
:1029D000080040F008014FF000000FBCBDE81040B7
:1029E0000BF1010BBBF1010F08BF5FEA170722BF14
:1029F00012F1010211F101014FF0004143F1000316
:102A000000F0004043EA00007047F9D35708D0E7D0
:102A100046EA064613F1400F4FEA16461FDD13F152
:102A2000200FDFBF16430A46002120335B42BED091
:102A3000C3F1200746EA064602FA07F74FEA1646B0
:102A400046EA0706C3F1200722FA03F201FA07F764
:102A500021FA03F14FF0000342EA0702A7E746EA32
:102A6000020646EA06464FEA164646EA0106BCBF9B
:102A700046EA0646360C4FF000034FF000024FF0D6
:102A8000000194E72DE9804C9A46934670B491E892
:102A9000380007C831EA400C48BF34EA430C03D57C
:102AA000FFF7A4FDFFF780FFF0BCBDE8008C2DE927
:102AB000804C9A46934670B491E8380007C831EAD2
:102AC000400C48BF34EA430C03D5FFF78FFDFFF7F6
:102AD00029FFF0BCBDE8008C2DE9804C9A46934656
:102AE00070B491E8380007C810F0804F08BF13F0A9
:102AF000804F03D100F01AF8FFF756FFF0BCBDE895
:102B0000008C2DE9804C9A46934670B491E83800C9
:102B100007C810F0804F08BF13F0804F03D100F0BA
:102B200005F8FFF7FFFEF0BCBDE8008C20F07F4702
:102B300080EA030023F07F4C07EB0C03A3F57C53E2
:102B400000F00040A3F1FE0392F0000F00F0B3800C
:102B500095F0000F00F077802DE901494FEA114010
:102B60004FEA144621EA004800FB06FC24EA064727
:102B700008FB06F607FB08F800FB07F718EB06480A
:102B80004CEB164C4FEA124B18EB07484FEA154630
:102B90004CEB174022EA0B4E0BFB06FC25EA0647DE
:102BA0000EFB06F607FB0EFE0BFB07F71EEB064EB1
:102BB0004CEB164C4FF000061EEB074E4CEB174B40
:102BC00018EB0B0840F1000018EB0E0B58EB000857
:102BD00040F100008F1A4FF000013CBFC943661B53
:102BE00014BFB5EB040C00213CBFC943F61B4FEAF0
:102BF00017444EEA8E0E27EA04454FEA1C4704FBB1
:102C000007622CEA074C05FB07F70CFB05F604FBF3
:102C10000CFC16EB074642EB174216EB0C4642EB58
:102C20001C421BEB060658EB0202414146EA9E0697
:102C300001D5BDE80189B619524141EB0101A3F16B
:102C40000103BDE801894FEA14454FEA114724EA20
:102C5000054621EA074C05FB07F406FB07F70CFBCA
:102C600006F105FB0CFC11EB074144EB17444FEA5E
:102C7000124711EB0C4144EB1C4422EA074C05FBC4
:102C800007F206FB07F70CFB06F605FB0CFC16EB40
:102C9000074642EB174216EB0C4642EB1C456A18FE
:102CA00054F1000148BF7047B619524141EB010190
:102CB000A3F10103704795F0000F37D04FEA11429E
:102CC0004FEA144721EA024624EA074C02FB07F1C7
:102CD00006FB07F70CFB06F402FB0CFC14EB0744A5
:102CE00041EB17414FEA154714EB0C4441EB1C41F3
:102CF00025EA074C02FB07F506FB07F70CFB06F677
:102D000002FB0CFC16EB074645EB174516EB0C4691
:102D100045EB1C42121951F1000148BF7047B6192A
:102D2000524141EB0101A3F1010370474FEA144501
:102D30004FEA114724EA054621EA074C05FB07F153
:102D400006FB07F70CFB06F24FF0000605FB0CFC38
:102D500012EB074241EB174112EB0C4251EB1C41C5
:102D600048BF7047921841EB0101A3F1010370477E
:102D700021B1826842F00102826003E0826822F0A1
:102D800001028260704721B1826842F480728260E1
:102D900003E0826822F4807282607047014600205E
:102DA0008A6802F004020AB1012000E000207047A6
:102DB000014600208A6802F008020AB1012000E002
:102DC0000020704730B502460020002350680F4CA9
:102DD00020400D790C6844EA052420435060906837
:102DE0000B4C2040D1E902542C434D7944EA450470
:102DF00020439060D06A20F470000C7C641EE4B222
:102E0000234340EA0350D06230BD0000FFFEF0FFD4
:102E1000FDF7F1FF10B501F085FD01211E4800F01E
:102E2000CBFE00231A4601211B4800F089FE012138
:102E3000084600F0ABFB002018490860087101202B
:102E400048714FF4602088600020C8600120087439
:102E50001348FFF7B7FF032301220B21104800F0AE
:102E600021F801210E48FFF78EFF01210C48FFF7E2
:102E70007FFF0B4800F072F800BF0948FFF798FF8A
:102E80000028FAD1064800F09DF800BF0448FFF77B
:102E900085FF0028FAD110BD00100140842A0020CF
:102EA00000240140F0B504460D4600200021092D04
:102EB00011DDE068A5F10A0606EB4607072606FACB
:102EC00007F18843A5F10A0606EB460603FA06F168
:102ED0000843E0600CE0206905EB4507072606FA89
:102EE00007F1884305EB450603FA06F10843206124
:102EF000072A0FDA606B561E06EB86071F2606FAB6
:102F000007F18843561E06EB860605FA06F10843CC
:102F1000606322E00D2A0FDA206BD61F06EB8607CE
:102F20001F2606FA07F18843D61F06EB860605FA28
:102F300006F10843206310E0E06AA2F10D0606EBFB
:102F400086071F2606FA07F18843A2F10D0606EB55
:102F5000860605FA06F10843E062F0BD816841F09B
:102F600008018160704721B1826842F4A00282604A
:102F700003E0826822F4A0028260704770B580246A
:102F800040F20250044323460B480C4940220C4DAA
:102F90002B60A860E9606A6000BF00BF2846006837
:102FA00040F001002946086000BF012102484C386A
:102FB000FFF7D9FF70BD00004C240140982A002083
:102FC00008000240816841F0040181607047704749
:102FD00010B50A2001F034FB0D2001F019FB0E2082
:102FE00001F02EFB0F2001F02BFB10BD10B50021CE
:102FF000002210460FE00A4C54F8303004EBC004B5
:1030000022799C68D44004F0010414B1012282406A
:103010001143421C10460228EDD3084610BD0000A3
:1030200034B0000810B5002411E00C4951F8340008
:10303000012100F0C1FD094A02EBC4021179074ADF
:1030400052F834000023032200F07AFD641C022CA5
:10305000EBD302F001F9002010BD000034B00008ED
:1030600008B525490422086824A1FDF721FCC8B948
:1030700021490968081D072222A1FDF719FC88B91A
:103080001D49096801F10B000A220021FDF7BAFB76
:103090000090684604F090FD1CA0009901F060FBD0
:1030A00005F00AFC1449042208681FA1FDF700FC82
:1030B00070B911490968081D06221DA1FDF7F8FB2A
:1030C00030B9684604F058FD1BA0009901F048FB98
:1030D0000949052208681BA1FDF7EAFB40B9064A29
:1030E0009288521F91B2044A1268501D01F0D6FA1C
:1030F0000148C168884708BD280000205345542076
:1031000000000000424F585F49443D0053455420A1
:10311000426F785F4944203D2025752073656363C5
:103120006573732E00000000474554200000000026
:10313000424F585F49440000426F785F4944203D48
:10314000202575004543484F20000000024682EAD2
:103150002120034B33F8100080EA012080B2704731
:1031600044B000080146302905DB392903DCA1F110
:103170003000C0B27047412905DB462903DCA1F1CC
:103180003700C0B2F6E7612905DB662903DCA1F14F
:103190005700C0B2EEE70846ECE7000070B5054600
:1031A0000C464FF480611248FDF71AFC224611A12B
:1031B0000F48FDF777F90E48FDF7A6FB0C494618B6
:1031C00022463146284600F085FF0948FDF79CFB62
:1031D000074908440A4909880180054801F0EAFACC
:1031E000102008490870032001F02AFA002070BD61
:1031F000E817002041542B4E4D47533D25642C00C9
:1032000088000020A20000202DE9F04104460F466E
:103210005549B7FBF1F201FB12703C21B0FBF1F212
:1032200001FB120121714FF46161B0FBF1F201FB6E
:1032300012013C22B1FBF2F161714FF46161B0FB0C
:10324000F1F1A1714848B7FBF0F085B24FF4FA6094
:10325000208021E021884FF4C87291FBF2F302FB39
:10326000131171B12188642291FBF2F302FB131157
:1032700051B12088C11700EB91718910A0EB810139
:1032800011B94FF4B77101E040F26D11691A8DB2B6
:103290002088401C80B2208021884FF4C87291FBA6
:1032A000F2F302FB131171B12188642291FBF2F356
:1032B00002FB131151B12088C11700EB91718910E5
:1032C000A0EB810111B94FF4B77101E040F26D112B
:1032D000A942BFDD0020A07022E020884FF4C87111
:1032E00090FBF1F201FB120070B12088642190FB89
:1032F000F1F201FB120048B12688F01706EB90703E
:103300008010A6EB800008B9012000E00020804674
:10331000A17804F01FFC281A85B2A078401CA07088
:1033200020884FF4C87190FBF1F201FB120070B1DC
:103330002088642190FBF1F201FB120048B126883D
:10334000F01706EB90708010A6EB800008B9012002
:1033500000E000208046A17804F0FCFBA842BCDD20
:10336000E570BDE8F08100008051010070B50546B0
:1033700000BF0948406800B170BD00210748FFF751
:10338000F2FD4021064803F029FF044604F0D6FA76
:103390000449087000BFEFE7080002400024014024
:1033A000982A00209900002010B50548006800F018
:1033B0000F04034844602046FFF7D8FF10BD00000B
:1033C0000000024010B50446014803F02CFD10BD7A
:1033D00018B3000810B505480068C0F303142001B5
:1033E000024948602046FFF7EDFF10BD0000024093
:1033F00010B50446014803F07BFB10BD18B300086C
:1034000010B505480068C0F3032420020249486053
:103410002046FFF7EDFF10BD0000024010B5044646
:10342000014803F000FD10BD68B2000810B5054862
:103430000068C0F303342003024948602046FFF7C8
:10344000EDFF10BD0000024010B50446014803F036
:103450004FFB10BD68B2000810B505480068C0F306
:1034600003442004024948602046FFF7EDFF10BDE9
:103470000000024010B50446014803F039FB10BDBE
:10348000C0B2000810B505480068C0F30354200519
:10349000024948602046FFF7EDFF10BD00000240E2
:1034A00010B50446014803F0BEFC10BDC0B20008D0
:1034B00010B505480068C0F303642006024948605F
:1034C0002046FFF7EDFF10BD0000024070470000EE
:1034D00010B50548006800F00F040348001D0460A3
:1034E0002046FFF7F3FF10BD0004024070470000C4
:1034F00010B506480068C0F3031420010349091DF4
:1035000008602046FFF7F2FF10BD000000040240F3
:1035100010B50446014803F0EBFA10BD70B3000883
:1035200010B506480068C0F3032420020349091DB2
:1035300008602046FFF7ECFF10BD000000040240C9
:1035400010B50C480068C0F3033434B120030949B6
:10355000091D0860204600F00FF806480068C0F317
:10356000034434B120040349091D0860204600F0DB
:1035700005F810BD000402407047000010B5044675
:10358000014803F050FC10BD70B3000870B505464B
:103590000C46012D02D0022D71D171E06A484069BC
:1035A00040F0010068494861082C60D2DFE804F06F
:1035B0005F04101C293643500020644988600F20A6
:1035C00048600B2003F0DCFC0B2003F005FD4EE00F
:1035D00000205E49C861F02048600C2003F0D0FC58
:1035E0000C2003F0F9FC42E00020584908634FF436
:1035F000706048600D2003F0C3FC0D2003F0ECFC6C
:1036000035E00020514948644FF4704048600E2076
:1036100003F0B6FC0E2003F0DFFC28E000204B494D
:1036200088654FF4702048600F2003F0A9FC0F203C
:1036300003F0D2FC1BE000204449C8664FF4700040
:103640004860102003F09CFC102003F0C5FC0EE045
:1036500000203E49803108604FF070603B4948606F
:10366000112003F08DFC112003F0B6FC00BF00BF59
:103670000120A0403649097808433549087061E0C7
:103680003148406940F002002F494861062C50D271
:10369000DFE804F04F03101F2F3F00202D49086082
:1036A0000F20091F0860382003F06AFC382003F05F
:1036B00093FC3EE00020274914310860F0202549A2
:1036C000091F0860392003F05BFC392003F084FCFB
:1036D0002FE000201F49283108604FF470601D4919
:1036E000091F08603A2003F04BFC3A2003F074FCF9
:1036F0001FE0002017493C3108604FF47040154925
:10370000091F08603B2003F03BFC3B2003F064FCF6
:103710000FE000200F49503108604FF470200D4930
:10372000091F08603B2003F02BFC3B2003F054FCF6
:1037300000BF00BF0120A04007490978084306499F
:10374000087000BF00BF70BD0010024000000240C2
:1037500090010020080402409101002070B5054648
:103760000C46012D02D0022D4ED14EE04F4800787C
:1037700000B970BD082C37D2DFE804F036040B1214
:103780001920272E0B2003F009FC002048498860EF
:103790002AE00C2003F002FC00204549C86123E028
:1037A0000D2003F0FBFB0020414908631CE00E20C4
:1037B00003F0F4FB00203E49486415E00F2003F0BD
:1037C000EDFB00203A4988650EE0102003F0E6FB8F
:1037D00000203749C86607E0112003F0DFFB002016
:1037E00033498031086000BF00BF0120A0402F494D
:1037F000097881432D480170007828B92D48406927
:1038000020F001002B4948614CE02B48007800B9BA
:10381000AFE7062C35D2DFE804F034030A121A278A
:10382000382003F0BBFB00202449086029E0392040
:1038300003F0B4FB002021491431086021E03A2054
:1038400003F0ACFB00201D492831086019E01A483C
:10385000007800F0200010B93B2003F09FFB00200F
:1038600016493C3108600CE01348007800F0100065
:1038700010B93B2003F092FB002010495031086042
:1038800000BF00BF0120A0400B49097881430A48CE
:103890000170007828B90748406920F00200054906
:1038A000486100BF00BF00BF63E700009001002037
:1038B0000000024000100240910100200804024074
:1038C0000149C860704700000020024030B504463E
:1038D00004254FF4302000F085F80546042D17D15B
:1038E0000C48006940F002000A490861084644613A
:1038F000006940F0400008614FF4302000F072F899
:1039000005460448006941F6FD7108400149086117
:10391000284630BD0020024004200B49C96801F050
:10392000010109B101200EE00749C96801F0040155
:1039300009B1022007E00449C96801F0100109B18A
:10394000032000E004207047002002400348006983
:1039500040F08000014908617047000000200240EB
:1039600078B506460C46042500200090E80200F0D9
:1039700039F80546042D24D11348006940F00100B0
:10398000114908613480E80200F02CF80546042D46
:1039900010D1B01C0090200C00990880E80200F0C3
:1039A00021F805460848006941F6FE7108400649BD
:1039B000086106E00448006941F6FE7108400249CA
:1039C0000861284678BD00000020024002480349F3
:1039D0004860034848607047230167450020024063
:1039E000AB89EFCD00B502460423FFF795FF0346F0
:1039F00003E0FFF791FF0346521E012B01D1002A7D
:103A0000F7D102B90523184600BD000018B50028FB
:103A100044D0C0F34211C0F30322214B9B6903F051
:103A200001032BB91E4B9B6943F001031C4CA3619E
:103A300000F48053A3B11B4BDB69009300F01F031C
:103A400001FA03F3009C9C43009400F01F0302FA68
:103A500003F3009C23430093124C009BE3611DE0A1
:103A6000104B5B68009300F01F0301FA03F3009C06
:103A70009C43009400F01F0302FA03F3009C2343CD
:103A8000009307210222009B23EA01630093009B1D
:103A900043EA02630093034C009B636018BD00007F
:103AA000001002400000014001461D48814204D13F
:103AB0001C488069C0F3800070471B48814204D1D4
:103AC00018488069C0F3C000F6E71848814204D165
:103AD00014488069C0F30010EEE71548814204D114
:103AE00010488069C0F34010E6E71248814204D1D3
:103AF0000C488069C0F38010DEE70F48814204D192
:103B000008488069C0F3C010D6E70C48814204D150
:103B100004488069C0F30020CEE70020CCE7000015
:103B20000008014000100240000C0140001001405C
:103B30000014014000180140001C01400020014019
:103B40002DE9F04105460C46174698460F2C02D940
:103B50000020BDE8F0812846FFF7A6FF18B9012133
:103B6000284600F029F8B8F1000F10D1022F05D136
:103B7000E8680121A1408843E86008E0032F06D1EE
:103B800027F00107E8680121A1400843E860082CFC
:103B900001D22E4601E0083C2E1D3068A2000F2104
:103BA00091408843306048EA8700A100884031682E
:103BB000084330600120CCE7002945D0454A9042B7
:103BC00006D1454A926942F00402434B9A6180E073
:103BD000424A904206D1404A926942F008023E4B66
:103BE0009A6176E03E4A904206D13B4A926942F0A1
:103BF0001002394B9A616CE03A4A904206D1364A3B
:103C0000926942F02002344B9A6162E0364A904257
:103C100006D1314A926942F040022F4B9A6158E036
:103C2000324A904206D12C4A926942F080022A4BD5
:103C30009A614EE02E4A90424BD1274A926942F453
:103C40008072254B9A6144E0224A904206D1224A72
:103C5000926922F00402204B9A613AE01F4A904296
:103C600006D11D4A926922F008021B4B9A6130E08E
:103C70001B4A904206D1184A926922F01002164B54
:103C80009A6126E0174A904206D1134A926922F0BF
:103C90002002114B9A611CE0134A904206D10E4A51
:103CA000926922F040020C4B9A6112E00F4A904256
:103CB00006D1094A926922F08002074B9A6108E016
:103CC0000B4A904205D1044A926922F48072024B59
:103CD0009A6170470008014000100240000C01404A
:103CE000001001400014014000180140001C014078
:103CF000002001402DE9F04F8BB081460C464E4626
:103D00003146022000F0C2F9007809900998412854
:103D10007DD13146042000F0B9F9007884F84000E4
:103D20003146062000F0B2F9007884F841003146AF
:103D3000032000F0ABF9079000F0BBF9C4E90201E1
:103D40003146052000F0A2F9079000F0B2F9C4E96D
:103D50000401D4E90221104606F026FB642190FB01
:103D6000F1F0A0616422A16901FB02F006F04BFBB7
:103D7000CDE90401D4E90201CDE90201DDE9042322
:103D800006F07CFDCDE9060106F08CF807463846C2
:103D900006F0ECFEE061E06906F004FF39460690AB
:103DA00006F0E4FF7549079006F014FF824650467E
:103DB00006F0DCFE2062D4E90421104606F0F4FA95
:103DC000642190FBF1F060626422616A01FB02F001
:103DD00006F019FBCDE90401D4E90401CDE90201A3
:103DE000DDE9042306F04AFDCDE9060106F05AF8A4
:103DF0008046404606F0BAFEA062A06A06F0D2FEF7
:103E00004146069006F0B2FF5C49079000E0B3E03F
:103E100006F0E0FE8346584606F0A8FEE062D4E9CC
:103E200002010022564BCDE9000103F0E1FC002223
:103E3000544BCDE9020106F023F9CDE90601D4E99E
:103E40000221104606F0B0FA642190FBF1F00390D5
:103E500006F0D9FACDE90401DDE9062306F054F8AD
:103E6000C4E90201D4E904010022454BCDE9000177
:103E700003F0BEFC0022434BCDE9020106F000F93D
:103E8000CDE90601D4E90421104606F08DFA64213B
:103E900090FBF1F0039006F0B6FACDE90401DDE9FC
:103EA000062306F031F8C4E904013146072000F08A
:103EB000EDF8059000F004F9CDE9060105F0F2FFF8
:103EC0000890089806F0C4FD2F4A304BCDE9040154
:103ED00006F0ECFACDE9060105F0E4FF2063314677
:103EE000082000F0D3F8059000F0EAF8CDE90601CB
:103EF00005F0D8FF6063307A3038F179303901EB62
:103F0000810100EB41012165B07A3038717A303996
:103F100001EB810100EB41016165307B3038F17AC2
:103F2000303901EB810100EB4101A16531460920E7
:103F300000F0ACF80546687830382978303901EB64
:103F4000810100EB4101E164E8783038A97830392B
:103F500001EB810100EB4101A164687930382979D6
:103F6000303901EB810100EB410000F5FA6060643B
:103F700001200BB0BDE8F08F0020FAE7000070428E
:103F80000000594000004E409A9999999999FD3F37
:103F900070B505460E46002453E0285D0A284AD134
:103FA0002949086829A1FCF771FC00283FD029485D
:103FB000D0E90030591C40F10000264AC2E9001047
:103FC000214908682449FFF795FE012829D10520D9
:103FD00000F036FB012020490870022200231D4911
:103FE00003C9FCF7D5F900214A404B401A431ED1C2
:103FF0001A480822184910310369984717480122C6
:10400000154941310369984714480822124908317B
:1040100003699847114801220F49403103699847C5
:1040200005E0052000F0F4FA00200B49087006486E
:10403000C168884704E029190348012203699847A9
:10404000641CB442A9DB70BDF0000020474E524D05
:104050004300000028010020D82600200C01002089
:1040600010B506484FF480720549836898470548A3
:104070004FF4B47204498368984710BDF0000020E3
:10408000382700200C010020382800202DE9F041BD
:1040900004460D462F46002606E02C213846FCF744
:1040A000EBFB07467F1C761CA642F6DB3846BDE8D4
:1040B000F08110B504460021204604F09FFC10BD9D
:1040C00070B504460021204604F0A6FC054606F023
:1040D000BFFC70BDF8B505460E46174600240AE041
:1040E0002A5D06A16846FCF7DDF906EB4400BDF841
:1040F00000100180641CBC42F2DBF8BD2530325850
:104100000000000010B545F2555000F029F80620D7
:1041100000F01AF840F20D3000F01CF800F00CF836
:1041200000F002F810BD00004CF6CC4001490860D8
:1041300070470000003000404AF6AA20014908609C
:10414000704700000030004001494860704700009F
:104150000030004001498860704700000030004096
:1041600001490860704700000030004070B5054606
:104170006248642262498368984762484FF400723B
:10418000614983689847072000F05AFA40F6B83032
:1041900004F00CFF5DA000F00DFB01205E490870EB
:1041A0004FF47A7004F002FF5CA000F003FB0220E1
:1041B000594908704FF47A7004F0F8FE5AA000F0E4
:1041C000F9FA0320544908704FF47A7004F0EEFEB7
:1041D00058A000F0EFFA03204F4908704FF47A70AE
:1041E00004F0E4FE57A000F0E5FA04204A49087004
:1041F0004FF47A7004F0DAFE55A000F0DBFA0520E7
:10420000454908704FF47A7004F0D0FE58A000F0D1
:10421000D1FA06204049087042F2107004F0C6FE40
:1042200056A000F0C7FA01203B4908704FF47A709D
:1042300004F0BCFE54A000F0BDFA07203649087017
:104240004FF47A7004F0B2FE52A000F0B3FA0820E6
:10425000314908704FF47A7004F0A8FE50A000F0C5
:10426000A9FA09202C4908704FF47A7004F09EFED8
:1042700052A000F09FFA0A20274908704FF47A7084
:1042800004F094FE51A000F095FA0B20224908702A
:104290004FF47A7004F08AFE50A000F08BFA0C20E4
:1042A0001D4908704FF47A7004F080FE4EA000F0B3
:1042B00081FA0D20184908704FF47A7004F076FEE8
:1042C0004DA000F077FA0E20134908704FF47A7071
:1042D00004F06CFE4CA000F06DFA0F200E4908703F
:1042E0004FF47A7004F062FE032000F0A9F905F0A3
:1042F0008FFB044604F074FE70BD000058000020DF
:10430000E81B0020700000204C1C002041542B436F
:1043100046554E3D300D0A00A200002041542B436B
:10432000474D520D0A00000041542B4E42414E446D
:104330003F0D0A0041542B4E42414E443D350D0A7B
:104340000000000041542B4347534E3D310D0A00FD
:1043500041542B4E4344503D3138302E3130312EB4
:104360003134372E3131352C353638330D0A0000D3
:1043700041542B4E52420D0A0000000041542B4381
:1043800046554E3D310D0A0041542B43494D490DD0
:104390000A00000041542B434D45453D310D0A00B4
:1043A00041542B434744434F4E543D312C224950F6
:1043B000222C2263746E6574220D0A0041542B4333
:1043C00053434F4E3D310D0A0000000041542B4332
:1043D000455245473D320D0A0000000041542B4E26
:1043E0004E4D493D310D0A0041542B434741545431
:1043F0003D310D0A0000000041542B4E55455354E9
:104400004154530D0A00000041542B43475041448E
:1044100044520D0A000000001CB508480321002387
:104420004FF48072CDE9001005A1074805F096FA17
:1044300004F0ACFF0549086000201CBD44010020C9
:104440005461736B5F425400ED4C00084001002042
:104450001CB50848032100234FF48072CDE90010F9
:1044600005A1084805F07AFA04F090FF06490860B3
:1044700000201CBD380100205461736B5F677073AE
:1044800000000000694D0008340100201CB50C48F4
:10449000032100234FF48072CDE9001009A10C48DC
:1044A00005F05CFA04F072FF0A4908600022C2219C
:1044B0000A2005F05DF80849086000201CBD0000D6
:1044C0001C0000205461736B5F4C4F4700000000DC
:1044D000314E000820000020240000201CB50848B0
:1044E000032100234FF48072CDE9001005A1074895
:1044F00005F034FA04F04AFF0549086000201CBDAD
:104500004C0000205461736B5F6E62002D4F0008F9
:10451000480000201CB50648032100234FF4807298
:10452000CDE9001003A1074805F018FA00201CBDD2
:10453000500000205461736B5F6E625F636F6E6644
:10454000696700006D4100081CB50B48032100237A
:104550004FF48072CDE9001008A10B4805F0FEF978
:1045600004F014FF0949086007210848006804F0B6
:10457000FDFE00201CBD0000E00000205461736BB4
:104580005F75686600000000F94F0008DC0000203D
:104590000146302901DB392907DD612901DB662964
:1045A00003DD412903DB462901DC0120704700209F
:1045B000FCE7000070B5002423E0144951F83400F2
:1045C0000121FFF7F9FA114B53F8340003EBC40350
:1045D000197900221AB101238B40036104E001F133
:1045E000100301259D40056100BF084A02EBC4028B
:1045F0001179064A52F8340002230022FFF7A0FA8C
:10460000641C132CD9D3002070BD00009CAF00089F
:1046100030B50146094C54F8310004EBC10422794D
:1046200000231BB101249440046104E002F1100452
:104630000125A540056100BF002030BD9CAF0008EA
:1046400030B50146094C54F8310004EBC10422791D
:1046500001231BB101249440046104E002F1100421
:104660000125A540056100BF002030BD9CAF0008BA
:1046700010B504460848005D30B1002006490855D1
:104680002046FFF7C5FF05E00120034908552046F5
:10469000FFF7D6FF002010BD182B002070B506468E
:1046A0000D462C46C02D00DBBF24601C0A49088043
:1046B000224631460848801CFCF745F90648801C14
:1046C00006A10978015500230A22811E04480068CA
:1046D00004F0C4FF70BD0000A61600200A00000010
:1046E000240000202DE9F04107460E463446602E96
:1046F00000DB5F24002508E07A5D0E49022303FBFE
:1047000005100DA1FBF7CEFE6D1CA542F4DB094898
:104710000BA1097800F81410012000EB44000549B2
:10472000891E088000230A220648006804F096FFCC
:10473000BDE8F081A81600202530325800000000A6
:104740000A0000002400002010B50348802203491D
:104750008368984710BD00002800002064150020E1
:104760000FB438B505A800900F48009A0499FBF7DC
:1047700087FE0D48FCF7C8F80B4944180BA12046EA
:10478000FBF790FE002000900748FCF7BDF80649B3
:10479000891E088000230A220548006804F05EFF95
:1047A00038BC5DF814FB0000A81600200A000000C9
:1047B0002400002038B504460A490968C86A8047C1
:1047C000009000F0010048B92046FCF79DF805462E
:1047D0000448006829464269204690470248C1685B
:1047E000884738BD440000205800002070B50446BA
:1047F0000D46042D06D12A4621463348FCF758F8C9
:1048000000B970BD012D5DDB2078072858D2DFE8A4
:1048100000F0040A0E141A52550002212B480068B9
:1048200004F0C3FD4DE001202949087049E0012052
:104830002849087004F040F843E00020254908703A
:1048400004F03AF83DE0052D34DB04222249601CD7
:10485000FCF72EF848B90020204908700A202049AA
:10486000087020490870204908706078FF2802DC31
:1048700060781A490870A0780A2805DBA078C82853
:1048800002DCA07816490870E078002805DDE078A1
:10489000242802DCE078134908702079032805DB1E
:1048A0002079C82802DC20790F49087002F06CFDDD
:1048B00004F002F805E002F067FD02E000F094F970
:1048C00000BF00BF00BF9CE774AF0008DC00002001
:1048D000A00000200901002078AF0008D6000020C9
:1048E00008010020D5000020D4000020014600204F
:1048F000034A506820F4404008435060704700006D
:104900000010024029B1064A92690243044B9A61A1
:1049100004E0034A92698243014B9A6170470000A8
:104920000010024010B54FF48040FFF7DFFF012177
:104930004802FFF7E7FF10BD70B56348808808287C
:1049400003DA6148C168884770BD60480078042870
:104950007ED0102802D011287BD131E05A49086856
:104960005BA1FBF793FF044604B9A7E03A21204678
:10497000FBF782FF441C0A2200212046FBF742FF7E
:104980000546002D01DD202D00DD97E02C2120467D
:10499000FBF772FF441C6A004F49204600F048F9BB
:1049A000A9B24D48FFF722FF0320FFF731FE0B218C
:1049B0004AA0FFF773FEA9B24748FFF793FE7DE0D8
:1049C0004149086848A1FBF761FF044604B975E056
:1049D00002F0F2FF464908603A212046FBF74CFFFF
:1049E000441C0A2200212046FBF70CFF40490968BD
:1049F00008802F212046FBF73FFF441C0A2200219C
:104A00002046FBF7FFFE3A49096888702F212046AF
:104A1000FBF732FF441C0A2200212046FBF7F2FE7E
:104A200033490968C8702C212046FBF725FF441C38
:104A30000A2200212046FBF7E5FE2D49096888710E
:104A40003A212046FBF718FF441C0A22002101E00E
:104A50001EE032E02046FBF7D5FE25490968487183
:104A60003A212046FBF708FF441C0A220021204679
:104A7000FBF7C8FE1E49096808711D48006802F06E
:104A800033FE064603F0A6FF082003F0A9FF15E059
:104A90000D49086817A1FBF7F9FE044604B90DE0BB
:104AA0003A212046FBF7E8FE441C0A22002120465A
:104AB000FBF7E0FE114A03C200E000BF00BF02485E
:104AC000C168884700BF3FE758000020A2000020CF
:104AD0002B4E4E4D493A00004C1E00204E425F5274
:104AE0006563656976653A002B43434C4B3A000099
:104AF0009C0000202B4347534E3A000090000020BA
:104B000010B500F001F810BD0CB500200190009028
:104B10003348006840F480303149086000BF3048B5
:104B2000006800F4003000900198401C019000984B
:104B300018B90198B0F5A06FF1D12948006800F4C8
:104B4000003010B10120009001E00020009000989A
:104B5000012843D12348006840F010002149086033
:104B60000846006820F0030008600846006840F02E
:104B7000020008601A4840681949486008464068C1
:104B800048600846406840F48060486008464068D5
:104B900020F47C1048600846406840F4E810486003
:104BA0000846006840F08070086000BF0C4800684C
:104BB00000F000700028F9D00948406820F0030098
:104BC000074948600846406840F00200486000BF5E
:104BD0000348406800F00C000828F9D10CBD000023
:104BE000001002400020024072B600BF00BF00BFAC
:104BF00000BF00BFBFF34F8F00BF00BF00BF0A4818
:104C0000006800F4E06009490843001D0649086097
:104C100000BF00BF00BFBFF34F8F00BF00BF00BF8A
:104C200000BF00BFFDE700000CED00E00000FA054A
:104C30002DE9F04304460E4617464FF000080025C4
:104C4000A94616E0605DFFF7A3FC78B1691C605CC3
:104C5000FFF79EFC50B16A1CA15C605D00F070FB28
:104C600006F8080008F10108AD1C00E003E009F1B6
:104C70000209B945E6DB00BFBDE8F08310B54FF08F
:104C8000E020006904F05AFC10BD000010B5134884
:104C9000006840F00100114908600846406810496A
:104CA00008400E494860084600680E4908400B4914
:104CB00008600846006820F48020086008464068C4
:104CC00020F4FE0048604FF41F008860FFF718FFD3
:104CD0004FF000600449086010BD00000010024061
:104CE0000000FFF8FFFFF6FE08ED00E008B5002425
:104CF000002000F0D3FBFEF76BF92DE017480068A9
:104D00004021826916489047322000230122114633
:104D100000901448006804F091FB054605F001007E
:104D200050B10E490968486A80470446A4B1A1B24F
:104D30000B48FEF74CF90FE008490968486A8047BC
:104D400004464CB1054800680021826A192090474A
:104D5000A1B20348FEF73BF9D0E700003C01002078
:104D6000202A00204001002008B50024002000F087
:104D700069FBFFF775F929480068402182692848D6
:104D800090474AE04FF47A700023012211460090C8
:104D90002448006804F052FB054605F00100A0B16C
:104DA0001E490968486A8047044674B122461C4976
:104DB0001D48FBF7C8FD1948006840218269184862
:104DC0009047A1B21848FFF7E3F805F00100D0B909
:104DD00012490968486A80470446A4B1224610492E
:104DE0001148FBF7B0FD0D4800680021826A1920C8
:104DF00090470A4800684021826909489047A1B25B
:104E00000948FFF7C5F80948007818B10820FFF7EE
:104E100017FC02E00820FFF7FBFBB3E7300100209E
:104E2000A029002034010020E029002009010020F1
:104E300008B50024002000F091FAFFF785FC00F08F
:104E40004BF93348006840218269324890475EE060
:104E50000A2000230122114600902F48006804F028
:104E6000EDFA054605F00100D0B129490968486A04
:104E700080470446002C32D0224626492748FBF7BB
:104E800062FD2348006840218269224890476420DF
:104E900000F03AF9A2B222482049036998471EE07F
:104EA0001B490968486A80470446C4B1224619492B
:104EB0001A48FBF748FD164800680021826A19204D
:104EC0009047134800684021826912489047642047
:104ED00000F01AF9A2B212481049036998470C4928
:104EE0000968C86A8047009000F0010078B90A227A
:104EF0000C490D48006804F081FC012807D10948DD
:104F000001880348006842690648801C90479FE773
:104F100018000020E41400202000002024150020A8
:104F200028000020E41500202400002008B50020FF
:104F300000F038FA00F010F9FFF7ECFA29480068A1
:104F400040218269284890474BE0642000230122D9
:104F5000114600902548006804F070FA054605F0F7
:104F60000100C8B11F490968486A80470446002CFF
:104F700012DD22461C491E48FBF7E5FC1948006873
:104F80004021826918489047C82000F0FDF8A2B27D
:104F9000184817490369984705F00100F8B9114905
:104FA0000968486A80470446002C18DD22460E49ED
:104FB0000F48FBF7C8FC0B4800680021826A1920E3
:104FC0009047084800684021826907489047C820F8
:104FD00000F0DAF8A2B2074805490369984702F0E1
:104FE00087FDB2E744000020681700204800002039
:104FF000A81700205800002008B500F0F7F900F0CD
:1050000071FA03F00DFE00F0E7F82D48006840212A
:1050100082692C48904752E0642000230122072136
:1050200000902948006804F009FA044604F00100E1
:10503000A8B123490968486A80470546002D0EDD5E
:105040002A4620492148FBF77EFC1D480068402184
:1050500082691C489047A9B21C4803F095FD04F0F2
:105060000700D8B916490968486A80470546002DE7
:1050700014DD2A4613491548FBF765FC1048006803
:105080000021826A192090470D48006840218269FA
:105090000C489047A9B20D4803F076FD04F00200D9
:1050A00040B10B480078642200FB02F10948007807
:1050B00003F0BCFC04F0040008B103F0D9FCABE73A
:1050C000E800002054260020DC0000209426002068
:1050D000D4000020D500002008B506480123002296
:1050E0004FF47A71009004A004F01EFE0549086098
:1050F00008BD0000319300086C6F675F74696D65CF
:10510000720000004000002038B5044611480068D5
:1051100004F08CFE40B1052000231A4603210090C4
:105120000C48006804F04CFE0A20002322460421AB
:1051300000900848006804F043FE04F07FFC054638
:105140000A2000232A46012100900248006804F04A
:1051500037FE38BD4000002008B506480123002274
:105160004FF47A71009004A004F0DEFD0549086058
:1051700008BD00003B9300086E625F74696D657244
:10518000000000005400002038B5044611480068B3
:1051900004F04CFE40B1052000231A460321009084
:1051A0000C48006804F00CFE0A200023224604216B
:1051B00000900848006804F003FE04F03FFC054638
:1051C0000A2000232A46012100900248006804F0CA
:1051D000F7FD38BD5400002008B506480123002221
:1051E0004FF47A71009004A004F09EFD0549086018
:1051F00008BD0000459300087568665F74696D65B9
:1052000072000000EC00002038B504461148006828
:1052100004F00CFE40B1052000231A460321009043
:105220000C48006804F0CCFD0A200023224604212B
:1052300000900848006804F0C3FD04F0FFFB054639
:105240000A2000232A46012100900248006804F049
:10525000B7FD38BDEC00002008B506480123002248
:105260004FF47A71009004A004F05EFD06490860D6
:1052700008BD000059930008627574746F6E5F7406
:10528000696D6572000000005401002038B50446C5
:105290001148006804F0CAFD40B1052000231A46F9
:1052A000032100900C48006804F08AFD0A200023C6
:1052B0002246042100900848006804F081FD04F0B3
:1052C000BDFB05460A2000232A4601210090024822
:1052D000006804F075FD38BD5401002008B50A20AF
:1052E00000231A46032100900248006804F068FD7C
:1052F00008BD00005401002038B50D4801231A46AE
:105300000A2100900BA004F00FFD0C49086008462C
:10531000006858B104F092FB04460A20002322469C
:10532000012100900548006804F04AFD38BD0000E6
:10533000CD920008636C6F636B0000000C000020CE
:1053400010B503460A461046FDF70CFF0446184602
:10535000FDF708FF04EB0010C0B210BD10B5044605
:105360000E48006881680E4888470C48006801694B
:1053700002208847094800684FF4E131826A012021
:105380009047064800680121826A1520904703482B
:1053900000680121826A1620904710BD1800002085
:1053A0000556000810B504460E48006881680E488E
:1053B00088470C480068016902208847094800684E
:1053C0004FF41651826A0120904706480068012177
:1053D000826A15209047034800680121826A1620DE
:1053E000904710BD440000203D57000810B50F48FD
:1053F000006881680E4888470C48006801690220EF
:1054000088470A4800684FF4E131826A01209047DA
:10541000064800680121826A152090470348006809
:105420000121826A1620904710BD0000E80000208C
:105430007158000810B5024801F034F810BD0000A2
:1054400070B3000810B504460E48006881680E4825
:1054500088470C48006801690220884709480068AD
:105460004FF41651826A01209047064800680121D6
:10547000826A15209047034800680121826A16203D
:10548000904710BD300100209559000810B5024822
:1054900001F008F810BD0000B8B3000810B50446CC
:1054A0000E48006881680E4888470C48006801690A
:1054B00002208847094800684FF41651826A01208B
:1054C0009047064800680121826A152090470348EA
:1054D00000680121826A1620904710BD3C0100201F
:1054E000BD5A000810B51220FFF7AAF803F098FB88
:1054F00010BD000070B504460D46034A29462046FB
:1055000000F0F0FA70BD000068B2000808B502486B
:1055100000F0F9FE009008BD68B2000808B5024826
:1055200000F0F4FE009008BD68B2000810B5024813
:1055300000F034FF10BD000068B2000808B5024852
:1055400000F039FF009008BD68B2000810B50248AD
:1055500000F09BFF10BD000068B2000810B50248C3
:1055600000F0A0FF10BD000068B2000810B50446AE
:105570000249204601F0CEF810BD000068B20008D4
:1055800010B504460249204601F082F910BD000022
:1055900068B2000870B504460D46034A2946204605
:1055A00001F0E7FA70BD000068B2000870B504466B
:1055B0000D46034A2946204601F06CFB70BD0000F1
:1055C00068B2000810B504460249204601F0DDFB30
:1055D00010BD000068B2000870B504460D461646BE
:1055E000034B32462946204601F042FC70BD0000C4
:1055F00068B2000810B5024801F06FFC10BD000051
:1056000068B2000870B504460F2604EA060048B1E7
:1056100004F0020030B101210348006803F0C5FE28
:10562000054600BF70BD00002000002070B5044694
:105630000D46034A2946204600F054FA70BD00008A
:10564000C0B2000808B5024800F05DFE009008BD39
:10565000C0B2000808B5024800F058FE009008BD2E
:10566000C0B2000810B5024800F098FE10BD00005E
:10567000C0B2000808B5024800F09DFE009008BDC9
:10568000C0B2000810B5024800F0FFFE10BD0000D7
:10569000C0B2000810B5024800F004FF10BD0000C1
:1056A000C0B2000810B504460249204601F032F8A5
:1056B00010BD0000C0B2000810B5044602492046E3
:1056C00001F0E6F810BD0000C0B2000870B5044655
:1056D0000D46034A2946204601F04BFA70BD0000F2
:1056E000C0B2000870B504460D46034A294620465C
:1056F00001F0D0FA70BD0000C0B2000810B5044639
:105700000249204601F041FB10BD0000C0B2000874
:1057100070B504460D461646034B324629462046D0
:1057200001F0A6FB70BD0000C0B2000810B5024831
:1057300001F0D3FB10BD0000C0B2000870B50446F4
:105740000F2504EA050038B104F0020020B1012160
:105750000248006803F029FE70BD000048000020E8
:1057600070B504460D46034A2946204600F0BAF9B2
:1057700070BD000018B3000808B5024800F0C3FD72
:10578000009008BD18B3000808B5024800F0BEFD3F
:10579000009008BD18B3000810B5024800F0FEFDE7
:1057A00010BD000018B3000808B5024800F003FE61
:1057B000009008BD18B3000810B5024800F065FE5F
:1057C00010BD000018B3000810B5024800F06AFED2
:1057D00010BD000018B3000810B504460249204669
:1057E00000F098FF10BD000018B3000810B5044683
:1057F0000249204601F04CF810BD000018B3000823
:1058000070B504460D46034A2946204601F0B1F919
:1058100070BD000018B3000870B504460D46034A79
:105820002946204601F036FA70BD000018B3000882
:1058300010B504460249204601F0A7FA10BD000049
:1058400018B3000870B504460D461646034B3246A1
:105850002946204601F00CFB70BD000018B300087B
:1058600010B5024801F039FB10BD000018B3000864
:1058700070B505460F2405EA040038B104F00200B3
:1058800020B101210248006803F08FFD70BD0000C7
:10589000DC00002070B504460D46034A2946204628
:1058A00000F020F970BD000070B3000808B5024890
:1058B00000F029FD009008BD70B3000808B502484B
:1058C00000F024FD009008BD70B3000810B5024838
:1058D00000F064FD10BD000070B3000808B5024878
:1058E00000F069FD009008BD70B3000810B50248D3
:1058F00000F0CBFD10BD000070B3000810B50446E9
:105900000249204600F006FF10BD000070B30008F9
:1059100010B504460249204600F0BAFF10BD000051
:1059200070B3000870B504460D46034A2946204668
:1059300001F01FF970BD000070B3000870B5044697
:105940000D46034A2946204601F0A4F970BD000027
:1059500070B3000810B504460249204601F015FA5C
:1059600010BD000070B3000870B504460D46164621
:10597000034B32462946204601F07AFA70BD0000FA
:1059800070B3000810B5024801F0A7FA10BD00007E
:1059900070B3000870B504460F2604EA060048B14B
:1059A00004F0020030B101210348006803F0FDFC5F
:1059B000054600BF70BD00003401002070B50446EC
:1059C0000D46034A2946204600F08CF870BD0000C1
:1059D000B8B3000808B5024800F095FC009008BD77
:1059E000B8B3000808B5024800F090FC009008BD6C
:1059F000B8B3000810B5024800F0D0FC10BD00009C
:105A0000B8B3000808B5024800F0D5FC009008BD06
:105A1000B8B3000810B5024800F037FD10BD000013
:105A2000B8B3000810B504460249204600F072FEE3
:105A300010BD0000B8B3000810B504460249204666
:105A400000F026FF10BD0000B8B3000870B5044692
:105A50000D46034A2946204601F08BF870BD000030
:105A6000B8B3000870B504460D46034A29462046DF
:105A700001F010F970BD0000B8B3000810B504467D
:105A80000249204601F081F910BD0000B8B30008BA
:105A900070B504460D461646034B3246294620464D
:105AA00001F0E6F970BD0000B8B3000810B5024877
:105AB00001F013FA10BD0000B8B3000870B5044639
:105AC0000F2604EA060048B104F0020030B10121BB
:105AD0000348006803F069FC054600BF70BD000084
